{"abi":[{"type":"function","name":"arithmeticError","inputs":[],"outputs":[{"name":"","type":"bytes","internalType":"bytes"}],"stateMutability":"view"},{"type":"function","name":"assertionError","inputs":[],"outputs":[{"name":"","type":"bytes","internalType":"bytes"}],"stateMutability":"view"},{"type":"function","name":"divisionError","inputs":[],"outputs":[{"name":"","type":"bytes","internalType":"bytes"}],"stateMutability":"view"},{"type":"function","name":"encodeStorageError","inputs":[],"outputs":[{"name":"","type":"bytes","internalType":"bytes"}],"stateMutability":"view"},{"type":"function","name":"enumConversionError","inputs":[],"outputs":[{"name":"","type":"bytes","internalType":"bytes"}],"stateMutability":"view"},{"type":"function","name":"indexOOBError","inputs":[],"outputs":[{"name":"","type":"bytes","internalType":"bytes"}],"stateMutability":"view"},{"type":"function","name":"lowLevelError","inputs":[],"outputs":[{"name":"","type":"bytes","internalType":"bytes"}],"stateMutability":"view"},{"type":"function","name":"memOverflowError","inputs":[],"outputs":[{"name":"","type":"bytes","internalType":"bytes"}],"stateMutability":"view"},{"type":"function","name":"popError","inputs":[],"outputs":[{"name":"","type":"bytes","internalType":"bytes"}],"stateMutability":"view"},{"type":"function","name":"zeroVarError","inputs":[],"outputs":[{"name":"","type":"bytes","internalType":"bytes"}],"stateMutability":"view"}],"bytecode":{"object":"0x610ac861004d600b8282823980515f1a6073146041577f4e487b71000000000000000000000000000000000000000000000000000000005f525f60045260245ffd5b305f52607381538281f3fe73000000000000000000000000000000000000000030146080604052600436106100a7575f3560e01c8063ac3d92c61161006f578063ac3d92c614610141578063b22dc54d1461015f578063b67689da1461017d578063d160e4de1461019b578063fa784a44146101b9576100a7565b806305ee8612146100ab57806310332977146100c95780631de45560146100e75780638995290f14610105578063986c5f6814610123575b5f5ffd5b6100b36101d7565b6040516100c0919061077b565b60405180910390f35b6100d1610269565b6040516100de919061077b565b60405180910390f35b6100ef6102fb565b6040516100fc919061077b565b60405180910390f35b61010d61038d565b60405161011a919061077b565b60405180910390f35b61012b61041f565b604051610138919061077b565b60405180910390f35b6101496104b1565b604051610156919061077b565b60405180910390f35b6101676104c3565b604051610174919061077b565b60405180910390f35b610185610555565b604051610192919061077b565b60405180910390f35b6101a36105e7565b6040516101b0919061077b565b60405180910390f35b6101c1610679565b6040516101ce919061077b565b60405180910390f35b60326040516024016101e991906107e9565b6040516020818303038152906040527f4e487b71000000000000000000000000000000000000000000000000000000007bffffffffffffffffffffffffffffffffffffffffffffffffffffffff19166020820180517bffffffffffffffffffffffffffffffffffffffffffffffffffffffff838183161783525050505081565b600160405160240161027b919061083b565b6040516020818303038152906040527f4e487b71000000000000000000000000000000000000000000000000000000007bffffffffffffffffffffffffffffffffffffffffffffffffffffffff19166020820180517bffffffffffffffffffffffffffffffffffffffffffffffffffffffff838183161783525050505081565b602160405160240161030d919061088d565b6040516020818303038152906040527f4e487b71000000000000000000000000000000000000000000000000000000007bffffffffffffffffffffffffffffffffffffffffffffffffffffffff19166020820180517bffffffffffffffffffffffffffffffffffffffffffffffffffffffff838183161783525050505081565b601160405160240161039f91906108df565b6040516020818303038152906040527f4e487b71000000000000000000000000000000000000000000000000000000007bffffffffffffffffffffffffffffffffffffffffffffffffffffffff19166020820180517bffffffffffffffffffffffffffffffffffffffffffffffffffffffff838183161783525050505081565b60416040516024016104319190610931565b6040516020818303038152906040527f4e487b71000000000000000000000000000000000000000000000000000000007bffffffffffffffffffffffffffffffffffffffffffffffffffffffff19166020820180517bffffffffffffffffffffffffffffffffffffffffffffffffffffffff838183161783525050505081565b60405180602001604052805f81525081565b60316040516024016104d59190610983565b6040516020818303038152906040527f4e487b71000000000000000000000000000000000000000000000000000000007bffffffffffffffffffffffffffffffffffffffffffffffffffffffff19166020820180517bffffffffffffffffffffffffffffffffffffffffffffffffffffffff838183161783525050505081565b605160405160240161056791906109d5565b6040516020818303038152906040527f4e487b71000000000000000000000000000000000000000000000000000000007bffffffffffffffffffffffffffffffffffffffffffffffffffffffff19166020820180517bffffffffffffffffffffffffffffffffffffffffffffffffffffffff838183161783525050505081565b60226040516024016105f99190610a27565b6040516020818303038152906040527f4e487b71000000000000000000000000000000000000000000000000000000007bffffffffffffffffffffffffffffffffffffffffffffffffffffffff19166020820180517bffffffffffffffffffffffffffffffffffffffffffffffffffffffff838183161783525050505081565b601260405160240161068b9190610a79565b6040516020818303038152906040527f4e487b71000000000000000000000000000000000000000000000000000000007bffffffffffffffffffffffffffffffffffffffffffffffffffffffff19166020820180517bffffffffffffffffffffffffffffffffffffffffffffffffffffffff838183161783525050505081565b5f81519050919050565b5f82825260208201905092915050565b8281835e5f83830152505050565b5f601f19601f8301169050919050565b5f61074d8261070b565b6107578185610715565b9350610767818560208601610725565b61077081610733565b840191505092915050565b5f6020820190508181035f8301526107938184610743565b905092915050565b5f819050919050565b5f60ff82169050919050565b5f819050919050565b5f6107d36107ce6107c98461079b565b6107b0565b6107a4565b9050919050565b6107e3816107b9565b82525050565b5f6020820190506107fc5f8301846107da565b92915050565b5f819050919050565b5f61082561082061081b84610802565b6107b0565b6107a4565b9050919050565b6108358161080b565b82525050565b5f60208201905061084e5f83018461082c565b92915050565b5f819050919050565b5f61087761087261086d84610854565b6107b0565b6107a4565b9050919050565b6108878161085d565b82525050565b5f6020820190506108a05f83018461087e565b92915050565b5f819050919050565b5f6108c96108c46108bf846108a6565b6107b0565b6107a4565b9050919050565b6108d9816108af565b82525050565b5f6020820190506108f25f8301846108d0565b92915050565b5f819050919050565b5f61091b610916610911846108f8565b6107b0565b6107a4565b9050919050565b61092b81610901565b82525050565b5f6020820190506109445f830184610922565b92915050565b5f819050919050565b5f61096d6109686109638461094a565b6107b0565b6107a4565b9050919050565b61097d81610953565b82525050565b5f6020820190506109965f830184610974565b92915050565b5f819050919050565b5f6109bf6109ba6109b58461099c565b6107b0565b6107a4565b9050919050565b6109cf816109a5565b82525050565b5f6020820190506109e85f8301846109c6565b92915050565b5f819050919050565b5f610a11610a0c610a07846109ee565b6107b0565b6107a4565b9050919050565b610a21816109f7565b82525050565b5f602082019050610a3a5f830184610a18565b92915050565b5f819050919050565b5f610a63610a5e610a5984610a40565b6107b0565b6107a4565b9050919050565b610a7381610a49565b82525050565b5f602082019050610a8c5f830184610a6a565b9291505056fea26469706673582212208a76ee9e7499e1d378e9d7247d3ec0e761f04da601e881db617aeadf903196c564736f6c63430008210033","linkReferences":{}},"methodIdentifiers":{"arithmeticError()":"8995290f","assertionError()":"10332977","divisionError()":"fa784a44","encodeStorageError()":"d160e4de","enumConversionError()":"1de45560","indexOOBError()":"05ee8612","lowLevelError()":"ac3d92c6","memOverflowError()":"986c5f68","popError()":"b22dc54d","zeroVarError()":"b67689da"},"id":4}