{"abi":[{"type":"function","name":"bytesToBytes32","inputs":[{"name":"b","type":"bytes","internalType":"bytes"},{"name":"offset","type":"uint256","internalType":"uint256"}],"outputs":[{"name":"","type":"bytes32","internalType":"bytes32"}],"stateMutability":"pure"},{"type":"event","name":"SlotFound","inputs":[{"name":"who","type":"address","indexed":false,"internalType":"address"},{"name":"fsig","type":"bytes4","indexed":false,"internalType":"bytes4"},{"name":"keysHash","type":"bytes32","indexed":false,"internalType":"bytes32"},{"name":"slot","type":"uint256","indexed":false,"internalType":"uint256"}],"anonymous":false},{"type":"event","name":"WARNING_UninitedSlot","inputs":[{"name":"who","type":"address","indexed":false,"internalType":"address"},{"name":"slot","type":"uint256","indexed":false,"internalType":"uint256"}],"anonymous":false}],"bytecode":{"object":"0x61041961004d600b8282823980515f1a6073146041577f4e487b71000000000000000000000000000000000000000000000000000000005f525f60045260245ffd5b305f52607381538281f3fe7300000000000000000000000000000000000000003014608060405260043610610034575f3560e01c80635358493914610038575b5f5ffd5b610052600480360381019061004d919061028a565b610068565b60405161005f91906102fc565b60405180910390f35b5f5f5f602085511161007b57845161007e565b60205b90505f5f90505b818110156100fe5760088161009a9190610342565b60ff60f81b8783886100ac9190610383565b815181106100bd576100bc6103b6565b5b602001015160f81c60f81b167effffffffffffffffffffffffffffffffffffffffffffffffffffffffffffff1916901c831792508080600101915050610085565b50819250505092915050565b5f604051905090565b5f5ffd5b5f5ffd5b5f5ffd5b5f5ffd5b5f601f19601f8301169050919050565b7f4e487b71000000000000000000000000000000000000000000000000000000005f52604160045260245ffd5b61016982610123565b810181811067ffffffffffffffff8211171561018857610187610133565b5b80604052505050565b5f61019a61010a565b90506101a68282610160565b919050565b5f67ffffffffffffffff8211156101c5576101c4610133565b5b6101ce82610123565b9050602081019050919050565b828183375f83830152505050565b5f6101fb6101f6846101ab565b610191565b9050828152602081018484840111156102175761021661011f565b5b6102228482856101db565b509392505050565b5f82601f83011261023e5761023d61011b565b5b813561024e8482602086016101e9565b91505092915050565b5f819050919050565b61026981610257565b8114610273575f5ffd5b50565b5f8135905061028481610260565b92915050565b5f5f604083850312156102a05761029f610113565b5b5f83013567ffffffffffffffff8111156102bd576102bc610117565b5b6102c98582860161022a565b92505060206102da85828601610276565b9150509250929050565b5f819050919050565b6102f6816102e4565b82525050565b5f60208201905061030f5f8301846102ed565b92915050565b7f4e487b71000000000000000000000000000000000000000000000000000000005f52601160045260245ffd5b5f61034c82610257565b915061035783610257565b925082820261036581610257565b9150828204841483151761037c5761037b610315565b5b5092915050565b5f61038d82610257565b915061039883610257565b92508282019050808211156103b0576103af610315565b5b92915050565b7f4e487b71000000000000000000000000000000000000000000000000000000005f52603260045260245ffdfea26469706673582212204ff5876e74ad33aed3cce515c860c7a7e226ce7713ac0b52936a0d5f9998ee7f64736f6c63430008210033","linkReferences":{}},"methodIdentifiers":{"bytesToBytes32(bytes,uint256)":"53584939"},"id":4}