{"abi":[{"type":"constructor","inputs":[{"name":"_houseFeePercentage","type":"uint256","internalType":"uint256"}],"stateMutability":"nonpayable"},{"type":"function","name":"addLoser","inputs":[{"name":"gameId","type":"uint256","internalType":"uint256"},{"name":"loser","type":"address","internalType":"address"}],"outputs":[],"stateMutability":"nonpayable"},{"type":"function","name":"createGame","inputs":[{"name":"governor","type":"address","internalType":"address"},{"name":"stakeAmount","type":"uint256","internalType":"uint256"},{"name":"maxPlayers","type":"uint256","internalType":"uint256"},{"name":"whitelist","type":"address[]","internalType":"address[]"}],"outputs":[{"name":"","type":"uint256","internalType":"uint256"}],"stateMutability":"payable"},{"type":"function","name":"endGame","inputs":[{"name":"gameId","type":"uint256","internalType":"uint256"},{"name":"governorFeePercentage","type":"uint256","internalType":"uint256"}],"outputs":[],"stateMutability":"nonpayable"},{"type":"function","name":"forfeitGame","inputs":[{"name":"gameId","type":"uint256","internalType":"uint256"}],"outputs":[],"stateMutability":"nonpayable"},{"type":"function","name":"games","inputs":[{"name":"","type":"uint256","internalType":"uint256"}],"outputs":[{"name":"governor","type":"address","internalType":"address"},{"name":"isReady","type":"bool","internalType":"bool"},{"name":"isEnded","type":"bool","internalType":"bool"},{"name":"stakeAmount","type":"uint256","internalType":"uint256"},{"name":"maxPlayers","type":"uint256","internalType":"uint256"},{"name":"activePlayers","type":"uint256","internalType":"uint256"}],"stateMutability":"view"},{"type":"function","name":"getGame","inputs":[{"name":"gameId","type":"uint256","internalType":"uint256"}],"outputs":[{"name":"","type":"tuple","internalType":"struct GameEscrow.GameInfo","components":[{"name":"governor","type":"address","internalType":"address"},{"name":"stakeAmount","type":"uint256","internalType":"uint256"},{"name":"maxPlayers","type":"uint256","internalType":"uint256"},{"name":"activePlayers","type":"uint256","internalType":"uint256"},{"name":"isReady","type":"bool","internalType":"bool"},{"name":"isEnded","type":"bool","internalType":"bool"},{"name":"players","type":"address[]","internalType":"address[]"},{"name":"losers","type":"address[]","internalType":"address[]"},{"name":"whitelist","type":"address[]","internalType":"address[]"},{"name":"forfeited","type":"address[]","internalType":"address[]"}]}],"stateMutability":"view"},{"type":"function","name":"getGovernorGames","inputs":[{"name":"governor","type":"address","internalType":"address"},{"name":"includeEnded","type":"bool","internalType":"bool"},{"name":"includeOngoing","type":"bool","internalType":"bool"},{"name":"includeNotStarted","type":"bool","internalType":"bool"},{"name":"offset","type":"uint256","internalType":"uint256"},{"name":"limit","type":"uint256","internalType":"uint256"}],"outputs":[{"name":"","type":"uint256[]","internalType":"uint256[]"}],"stateMutability":"view"},{"type":"function","name":"getNotStartedGames","inputs":[{"name":"offset","type":"uint256","internalType":"uint256"},{"name":"limit","type":"uint256","internalType":"uint256"}],"outputs":[{"name":"","type":"uint256[]","internalType":"uint256[]"}],"stateMutability":"view"},{"type":"function","name":"getOngoingGames","inputs":[{"name":"offset","type":"uint256","internalType":"uint256"},{"name":"limit","type":"uint256","internalType":"uint256"}],"outputs":[{"name":"","type":"uint256[]","internalType":"uint256[]"}],"stateMutability":"view"},{"type":"function","name":"houseFeePercentage","inputs":[],"outputs":[{"name":"","type":"uint256","internalType":"uint256"}],"stateMutability":"view"},{"type":"function","name":"joinGame","inputs":[{"name":"gameId","type":"uint256","internalType":"uint256"}],"outputs":[],"stateMutability":"payable"},{"type":"function","name":"nextGameId","inputs":[],"outputs":[{"name":"","type":"uint256","internalType":"uint256"}],"stateMutability":"view"},{"type":"function","name":"owner","inputs":[],"outputs":[{"name":"","type":"address","internalType":"address"}],"stateMutability":"view"},{"type":"function","name":"setGameReady","inputs":[{"name":"gameId","type":"uint256","internalType":"uint256"}],"outputs":[],"stateMutability":"nonpayable"},{"type":"function","name":"withdraw","inputs":[],"outputs":[],"stateMutability":"nonpayable"},{"type":"event","name":"GameCreated","inputs":[{"name":"gameId","type":"uint256","indexed":true,"internalType":"uint256"},{"name":"creator","type":"address","indexed":false,"internalType":"address"},{"name":"stakeAmount","type":"uint256","indexed":false,"internalType":"uint256"}],"anonymous":false},{"type":"event","name":"GameEnded","inputs":[{"name":"gameId","type":"uint256","indexed":true,"internalType":"uint256"}],"anonymous":false},{"type":"event","name":"GameReady","inputs":[{"name":"gameId","type":"uint256","indexed":true,"internalType":"uint256"}],"anonymous":false},{"type":"event","name":"LoserAdded","inputs":[{"name":"gameId","type":"uint256","indexed":true,"internalType":"uint256"},{"name":"loser","type":"address","indexed":false,"internalType":"address"}],"anonymous":false},{"type":"event","name":"PlayerForfeited","inputs":[{"name":"gameId","type":"uint256","indexed":true,"internalType":"uint256"},{"name":"player","type":"address","indexed":false,"internalType":"address"}],"anonymous":false},{"type":"event","name":"PlayerJoined","inputs":[{"name":"gameId","type":"uint256","indexed":true,"internalType":"uint256"},{"name":"player","type":"address","indexed":false,"internalType":"address"}],"anonymous":false},{"type":"error","name":"ReentrancyGuardReentrantCall","inputs":[]}],"bytecode":{"object":"0x60a060405234801561000f575f5ffd5b50604051613e26380380613e26833981810160405281019061003191906100bd565b60015f819055503360035f6101000a81548173ffffffffffffffffffffffffffffffffffffffff021916908373ffffffffffffffffffffffffffffffffffffffff1602179055508060808181525050506100e8565b5f5ffd5b5f819050919050565b61009c8161008a565b81146100a6575f5ffd5b50565b5f815190506100b781610093565b92915050565b5f602082840312156100d2576100d1610086565b5b5f6100df848285016100a9565b91505092915050565b608051613d1861010e5f395f818161040d015281816113ef01526114910152613d185ff3fe6080604052600436106100e7575f3560e01c806398be22f711610089578063b135bbb011610058578063b135bbb0146102ea578063e0e2721e14610314578063e240ae5f14610350578063efaa55a014610380576100e7565b806398be22f7146102225780639f98985d1461024a578063a2c2536914610272578063a2f77bcc146102ae576100e7565b80633ccfd60b116100c55780633ccfd60b1461017e5780634bd40e79146101945780636b0be1f5146101d05780638da5cb5b146101f8576100e7565b8063117a5b90146100eb5780631780a8921461012c5780633138dbf914610156575b5f5ffd5b3480156100f6575f5ffd5b50610111600480360381019061010c91906129d2565b61039c565b60405161012396959493929190612a65565b60405180910390f35b348015610137575f5ffd5b5061014061040b565b60405161014d9190612ac4565b60405180910390f35b348015610161575f5ffd5b5061017c60048036038101906101779190612b07565b61042f565b005b348015610189575f5ffd5b5061019261081f565b005b34801561019f575f5ffd5b506101ba60048036038101906101b59190612b6f565b6109c1565b6040516101c79190612caf565b60405180910390f35b3480156101db575f5ffd5b506101f660048036038101906101f191906129d2565b610c8d565b005b348015610203575f5ffd5b5061020c610e78565b6040516102199190612ccf565b60405180910390f35b34801561022d575f5ffd5b50610248600480360381019061024391906129d2565b610e9d565b005b348015610255575f5ffd5b50610270600480360381019061026b9190612ce8565b61128c565b005b34801561027d575f5ffd5b5061029860048036038101906102939190612ce8565b6119bd565b6040516102a59190612caf565b60405180910390f35b3480156102b9575f5ffd5b506102d460048036038101906102cf91906129d2565b611b69565b6040516102e19190612ed8565b60405180910390f35b3480156102f5575f5ffd5b506102fe611e4f565b60405161030b9190612ac4565b60405180910390f35b34801561031f575f5ffd5b5061033a60048036038101906103359190612ce8565b611e55565b6040516103479190612caf565b60405180910390f35b61036a60048036038101906103659190612f59565b612002565b6040516103779190612ac4565b60405180910390f35b61039a600480360381019061039591906129d2565b6124b6565b005b6001602052805f5260405f205f91509050805f015f9054906101000a900473ffffffffffffffffffffffffffffffffffffffff1690805f0160149054906101000a900460ff1690805f0160159054906101000a900460ff16908060010154908060020154908060030154905086565b7f000000000000000000000000000000000000000000000000000000000000000081565b813373ffffffffffffffffffffffffffffffffffffffff1660015f8381526020019081526020015f205f015f9054906101000a900473ffffffffffffffffffffffffffffffffffffffff1673ffffffffffffffffffffffffffffffffffffffff16146104d0576040517f08c379a00000000000000000000000000000000000000000000000000000000081526004016104c790613037565b60405180910390fd5b5f60015f8581526020019081526020015f209050805f0160149054906101000a900460ff16610534576040517f08c379a000000000000000000000000000000000000000000000000000000000815260040161052b9061309f565b60405180910390fd5b805f0160159054906101000a900460ff1615610585576040517f08c379a000000000000000000000000000000000000000000000000000000000815260040161057c90613107565b60405180910390fd5b80600b015f8473ffffffffffffffffffffffffffffffffffffffff1673ffffffffffffffffffffffffffffffffffffffff1681526020019081526020015f205f9054906101000a900460ff16610610576040517f08c379a00000000000000000000000000000000000000000000000000000000081526004016106079061316f565b60405180910390fd5b806008015f8473ffffffffffffffffffffffffffffffffffffffff1673ffffffffffffffffffffffffffffffffffffffff1681526020019081526020015f205f9054906101000a900460ff161561069c576040517f08c379a0000000000000000000000000000000000000000000000000000000008152600401610693906131d7565b60405180910390fd5b80600a015f8473ffffffffffffffffffffffffffffffffffffffff1673ffffffffffffffffffffffffffffffffffffffff1681526020019081526020015f205f9054906101000a900460ff1615610728576040517f08c379a000000000000000000000000000000000000000000000000000000000815260040161071f9061323f565b60405180910390fd5b8060050183908060018154018082558091505060019003905f5260205f20015f9091909190916101000a81548173ffffffffffffffffffffffffffffffffffffffff021916908373ffffffffffffffffffffffffffffffffffffffff1602179055506001816008015f8573ffffffffffffffffffffffffffffffffffffffff1673ffffffffffffffffffffffffffffffffffffffff1681526020019081526020015f205f6101000a81548160ff021916908315150217905550837f4e933bfcd8e2bbefec3e83379418a742d770890c50371c14259b346949ae4946846040516108119190612ccf565b60405180910390a250505050565b60035f9054906101000a900473ffffffffffffffffffffffffffffffffffffffff1673ffffffffffffffffffffffffffffffffffffffff163373ffffffffffffffffffffffffffffffffffffffff16146108ae576040517f08c379a00000000000000000000000000000000000000000000000000000000081526004016108a5906132a7565b60405180910390fd5b5f4790505f81116108f4576040517f08c379a00000000000000000000000000000000000000000000000000000000081526004016108eb9061330f565b60405180910390fd5b5f60035f9054906101000a900473ffffffffffffffffffffffffffffffffffffffff1673ffffffffffffffffffffffffffffffffffffffff168260405161093a9061335a565b5f6040518083038185875af1925050503d805f8114610974576040519150601f19603f3d011682016040523d82523d5f602084013e610979565b606091505b50509050806109bd576040517f08c379a00000000000000000000000000000000000000000000000000000000081526004016109b4906133b8565b60405180910390fd5b5050565b60605f8267ffffffffffffffff8111156109de576109dd6133d6565b5b604051908082528060200260200182016040528015610a0c5781602001602082028036833780820191505090505b5090505f5f90505f8590505b60025481108015610a2857508482105b15610bdb578973ffffffffffffffffffffffffffffffffffffffff1660015f8381526020019081526020015f205f015f9054906101000a900473ffffffffffffffffffffffffffffffffffffffff1673ffffffffffffffffffffffffffffffffffffffff1603610bc8575f5f905060015f8381526020019081526020015f205f0160159054906101000a900460ff168015610ac05750895b15610ace5760019050610b91565b60015f8381526020019081526020015f205f0160149054906101000a900460ff168015610b19575060015f8381526020019081526020015f205f0160159054906101000a900460ff16155b8015610b225750885b15610b305760019050610b90565b60015f8381526020019081526020015f205f0160149054906101000a900460ff16158015610b7c575060015f8381526020019081526020015f205f0160159054906101000a900460ff16155b8015610b855750875b15610b8f57600190505b5b5b8015610bc65781848481518110610bab57610baa613403565b5b6020026020010181815250508280610bc29061345d565b9350505b505b8080610bd39061345d565b915050610a18565b505f8167ffffffffffffffff811115610bf757610bf66133d6565b5b604051908082528060200260200182016040528015610c255781602001602082028036833780820191505090505b5090505f5f90505b82811015610c7c57838181518110610c4857610c47613403565b5b6020026020010151828281518110610c6357610c62613403565b5b6020026020010181815250508080600101915050610c2d565b508093505050509695505050505050565b803373ffffffffffffffffffffffffffffffffffffffff1660015f8381526020019081526020015f205f015f9054906101000a900473ffffffffffffffffffffffffffffffffffffffff1673ffffffffffffffffffffffffffffffffffffffff1614610d2e576040517f08c379a0000000000000000000000000000000000000000000000000000000008152600401610d2590613037565b60405180910390fd5b5f60015f8481526020019081526020015f209050805f0160159054906101000a900460ff1615610d93576040517f08c379a0000000000000000000000000000000000000000000000000000000008152600401610d8a90613107565b60405180910390fd5b805f0160149054906101000a900460ff1615610de4576040517f08c379a0000000000000000000000000000000000000000000000000000000008152600401610ddb906134ee565b60405180910390fd5b5f816003015411610e2a576040517f08c379a0000000000000000000000000000000000000000000000000000000008152600401610e2190613556565b60405180910390fd5b6001815f0160146101000a81548160ff021916908315150217905550827f122c5e6d32f32c06ef4f827e5fba9a828fc49a071ed653c391975456a326112860405160405180910390a2505050565b60035f9054906101000a900473ffffffffffffffffffffffffffffffffffffffff1681565b610ea56128e3565b5f60015f8381526020019081526020015f209050805f0160149054906101000a900460ff1615610f0a576040517f08c379a0000000000000000000000000000000000000000000000000000000008152600401610f01906135be565b60405180910390fd5b805f0160159054906101000a900460ff1615610f5b576040517f08c379a0000000000000000000000000000000000000000000000000000000008152600401610f5290613107565b60405180910390fd5b80600b015f3373ffffffffffffffffffffffffffffffffffffffff1673ffffffffffffffffffffffffffffffffffffffff1681526020019081526020015f205f9054906101000a900460ff16610fe6576040517f08c379a0000000000000000000000000000000000000000000000000000000008152600401610fdd9061316f565b60405180910390fd5b80600a015f3373ffffffffffffffffffffffffffffffffffffffff1673ffffffffffffffffffffffffffffffffffffffff1681526020019081526020015f205f9054906101000a900460ff1615611072576040517f08c379a000000000000000000000000000000000000000000000000000000000815260040161106990613626565b60405180910390fd5b600181600a015f3373ffffffffffffffffffffffffffffffffffffffff1673ffffffffffffffffffffffffffffffffffffffff1681526020019081526020015f205f6101000a81548160ff0219169083151502179055508060070133908060018154018082558091505060019003905f5260205f20015f9091909190916101000a81548173ffffffffffffffffffffffffffffffffffffffff021916908373ffffffffffffffffffffffffffffffffffffffff1602179055506001816003015f82825461113f9190613644565b92505081905550817f5bc5efe1dfe2c8edeecd595a2fb7fae2399b54f50cb2870ddea3e2ff71a57970336040516111769190612ccf565b60405180910390a25f3373ffffffffffffffffffffffffffffffffffffffff1682600101546040516111a79061335a565b5f6040518083038185875af1925050503d805f81146111e1576040519150601f19603f3d011682016040523d82523d5f602084013e6111e6565b606091505b505090508061122a576040517f08c379a0000000000000000000000000000000000000000000000000000000008152600401611221906136c1565b60405180910390fd5b5f82600301540361127f576001825f0160156101000a81548160ff021916908315150217905550827fce24807f7e4b60b4e641462f13029fa5e5f79075bbc3f8e5cd43ecd19661d76060405160405180910390a25b5050611289612927565b50565b6112946128e3565b813373ffffffffffffffffffffffffffffffffffffffff1660015f8381526020019081526020015f205f015f9054906101000a900473ffffffffffffffffffffffffffffffffffffffff1673ffffffffffffffffffffffffffffffffffffffff1614611335576040517f08c379a000000000000000000000000000000000000000000000000000000000815260040161132c90613037565b60405180910390fd5b5f60015f8581526020019081526020015f209050805f0160149054906101000a900460ff16611399576040517f08c379a00000000000000000000000000000000000000000000000000000000081526004016113909061309f565b60405180910390fd5b805f0160159054906101000a900460ff16156113ea576040517f08c379a00000000000000000000000000000000000000000000000000000000081526004016113e190613729565b60405180910390fd5b6064837f00000000000000000000000000000000000000000000000000000000000000006114189190613747565b1115611459576040517f08c379a0000000000000000000000000000000000000000000000000000000008152600401611450906137c4565b60405180910390fd5b6001815f0160156101000a81548160ff0219169083151502179055505f8160030154826001015461148a91906137e2565b90505f60647f0000000000000000000000000000000000000000000000000000000000000000836114bb91906137e2565b6114c59190613850565b90505f606486846114d691906137e2565b6114e09190613850565b90505f8183856114f09190613644565b6114fa9190613644565b90505f8211156115d0575f855f015f9054906101000a900473ffffffffffffffffffffffffffffffffffffffff1673ffffffffffffffffffffffffffffffffffffffff168360405161154b9061335a565b5f6040518083038185875af1925050503d805f8114611585576040519150601f19603f3d011682016040523d82523d5f602084013e61158a565b606091505b50509050806115ce576040517f08c379a00000000000000000000000000000000000000000000000000000000081526004016115c5906138ca565b60405180910390fd5b505b5f5f866004018054905090505f5b818110156116e1575f8860040182815481106115fd576115fc613403565b5b905f5260205f20015f9054906101000a900473ffffffffffffffffffffffffffffffffffffffff169050886008015f8273ffffffffffffffffffffffffffffffffffffffff1673ffffffffffffffffffffffffffffffffffffffff1681526020019081526020015f205f9054906101000a900460ff161580156116c9575088600a015f8273ffffffffffffffffffffffffffffffffffffffff1673ffffffffffffffffffffffffffffffffffffffff1681526020019081526020015f205f9054906101000a900460ff16155b156116d5578360010193505b816001019150506115de565b505f82036117c2575f8311156117bd575f875f015f9054906101000a900473ffffffffffffffffffffffffffffffffffffffff1673ffffffffffffffffffffffffffffffffffffffff16846040516117389061335a565b5f6040518083038185875af1925050503d805f8114611772576040519150601f19603f3d011682016040523d82523d5f602084013e611777565b606091505b50509050806117bb576040517f08c379a00000000000000000000000000000000000000000000000000000000081526004016117b290613932565b60405180910390fd5b505b61197c565b5f82846117cf9190613850565b90505f5b82811015611979575f8960040182815481106117f2576117f1613403565b5b905f5260205f20015f9054906101000a900473ffffffffffffffffffffffffffffffffffffffff169050896008015f8273ffffffffffffffffffffffffffffffffffffffff1673ffffffffffffffffffffffffffffffffffffffff1681526020019081526020015f205f9054906101000a900460ff161580156118be575089600a015f8273ffffffffffffffffffffffffffffffffffffffff1673ffffffffffffffffffffffffffffffffffffffff1681526020019081526020015f205f9054906101000a900460ff16155b1561196d575f8173ffffffffffffffffffffffffffffffffffffffff16846040516118e89061335a565b5f6040518083038185875af1925050503d805f8114611922576040519150601f19603f3d011682016040523d82523d5f602084013e611927565b606091505b505090508061196b576040517f08c379a00000000000000000000000000000000000000000000000000000000081526004016119629061399a565b60405180910390fd5b505b816001019150506117d3565b50505b897fce24807f7e4b60b4e641462f13029fa5e5f79075bbc3f8e5cd43ecd19661d76060405160405180910390a250505050505050506119b9612927565b5050565b60605f8267ffffffffffffffff8111156119da576119d96133d6565b5b604051908082528060200260200182016040528015611a085781602001602082028036833780820191505090505b5090505f5f90505f8590505b60025481108015611a2457508482105b15611abb5760015f8281526020019081526020015f205f0160149054906101000a900460ff168015611a74575060015f8281526020019081526020015f205f0160159054906101000a900460ff16155b15611aa85780838381518110611a8d57611a8c613403565b5b6020026020010181815250508180611aa49061345d565b9250505b8080611ab39061345d565b915050611a14565b505f8167ffffffffffffffff811115611ad757611ad66133d6565b5b604051908082528060200260200182016040528015611b055781602001602082028036833780820191505090505b5090505f5f90505b82811015611b5c57838181518110611b2857611b27613403565b5b6020026020010151828281518110611b4357611b42613403565b5b6020026020010181815250508080600101915050611b0d565b5080935050505092915050565b611b71612930565b5f60015f8481526020019081526020015f209050604051806101400160405280825f015f9054906101000a900473ffffffffffffffffffffffffffffffffffffffff1673ffffffffffffffffffffffffffffffffffffffff168152602001826001015481526020018260020154815260200182600301548152602001825f0160149054906101000a900460ff1615158152602001825f0160159054906101000a900460ff161515815260200182600401805480602002602001604051908101604052809291908181526020018280548015611c9e57602002820191905f5260205f20905b815f9054906101000a900473ffffffffffffffffffffffffffffffffffffffff1673ffffffffffffffffffffffffffffffffffffffff1681526020019060010190808311611c55575b5050505050815260200182600501805480602002602001604051908101604052809291908181526020018280548015611d2957602002820191905f5260205f20905b815f9054906101000a900473ffffffffffffffffffffffffffffffffffffffff1673ffffffffffffffffffffffffffffffffffffffff1681526020019060010190808311611ce0575b5050505050815260200182600601805480602002602001604051908101604052809291908181526020018280548015611db457602002820191905f5260205f20905b815f9054906101000a900473ffffffffffffffffffffffffffffffffffffffff1673ffffffffffffffffffffffffffffffffffffffff1681526020019060010190808311611d6b575b5050505050815260200182600701805480602002602001604051908101604052809291908181526020018280548015611e3f57602002820191905f5260205f20905b815f9054906101000a900473ffffffffffffffffffffffffffffffffffffffff1673ffffffffffffffffffffffffffffffffffffffff1681526020019060010190808311611df6575b5050505050815250915050919050565b60025481565b60605f8267ffffffffffffffff811115611e7257611e716133d6565b5b604051908082528060200260200182016040528015611ea05781602001602082028036833780820191505090505b5090505f5f90505f8590505b60025481108015611ebc57508482105b15611f545760015f8281526020019081526020015f205f0160149054906101000a900460ff16158015611f0d575060015f8281526020019081526020015f205f0160159054906101000a900460ff16155b15611f415780838381518110611f2657611f25613403565b5b6020026020010181815250508180611f3d9061345d565b9250505b8080611f4c9061345d565b915050611eac565b505f8167ffffffffffffffff811115611f7057611f6f6133d6565b5b604051908082528060200260200182016040528015611f9e5781602001602082028036833780820191505090505b5090505f5f90505b82811015611ff557838181518110611fc157611fc0613403565b5b6020026020010151828281518110611fdc57611fdb613403565b5b6020026020010181815250508080600101915050611fa6565b5080935050505092915050565b5f5f8511612045576040517f08c379a000000000000000000000000000000000000000000000000000000000815260040161203c90613a02565b60405180910390fd5b843414612087576040517f08c379a000000000000000000000000000000000000000000000000000000000815260040161207e90613a6a565b60405180910390fd5b5f73ffffffffffffffffffffffffffffffffffffffff168673ffffffffffffffffffffffffffffffffffffffff16036120f5576040517f08c379a00000000000000000000000000000000000000000000000000000000081526004016120ec90613ad2565b60405180910390fd5b5f60025f8154809291906121089061345d565b9190505590505f60015f8381526020019081526020015f20905087815f015f6101000a81548173ffffffffffffffffffffffffffffffffffffffff021916908373ffffffffffffffffffffffffffffffffffffffff1602179055508681600101819055508581600201819055508060040133908060018154018082558091505060019003905f5260205f20015f9091909190916101000a81548173ffffffffffffffffffffffffffffffffffffffff021916908373ffffffffffffffffffffffffffffffffffffffff160217905550600181600b015f3373ffffffffffffffffffffffffffffffffffffffff1673ffffffffffffffffffffffffffffffffffffffff1681526020019081526020015f205f6101000a81548160ff021916908315150217905550600181600301819055505f85859050111561246e575f5b85859050811015612362578160060186868381811061226757612266613403565b5b905060200201602081019061227c9190613af0565b908060018154018082558091505060019003905f5260205f20015f9091909190916101000a81548173ffffffffffffffffffffffffffffffffffffffff021916908373ffffffffffffffffffffffffffffffffffffffff1602179055506001826009015f8888858181106122f3576122f2613403565b5b90506020020160208101906123089190613af0565b73ffffffffffffffffffffffffffffffffffffffff1673ffffffffffffffffffffffffffffffffffffffff1681526020019081526020015f205f6101000a81548160ff021916908315150217905550806001019050612245565b50806009015f3373ffffffffffffffffffffffffffffffffffffffff1673ffffffffffffffffffffffffffffffffffffffff1681526020019081526020015f205f9054906101000a900460ff1661246d578060060133908060018154018082558091505060019003905f5260205f20015f9091909190916101000a81548173ffffffffffffffffffffffffffffffffffffffff021916908373ffffffffffffffffffffffffffffffffffffffff1602179055506001816009015f3373ffffffffffffffffffffffffffffffffffffffff1673ffffffffffffffffffffffffffffffffffffffff1681526020019081526020015f205f6101000a81548160ff0219169083151502179055505b5b817f7dfb67e9ff596fca4da65c7eedb128cd1aac553af54b3c0cb733625a2480d8bd33896040516124a0929190613b1b565b60405180910390a2819250505095945050505050565b6124be6128e3565b5f60015f8381526020019081526020015f2090505f73ffffffffffffffffffffffffffffffffffffffff16815f015f9054906101000a900473ffffffffffffffffffffffffffffffffffffffff1673ffffffffffffffffffffffffffffffffffffffff1603612562576040517f08c379a000000000000000000000000000000000000000000000000000000000815260040161255990613b8c565b60405180910390fd5b805f0160149054906101000a900460ff16156125b3576040517f08c379a00000000000000000000000000000000000000000000000000000000081526004016125aa906135be565b60405180910390fd5b805f0160159054906101000a900460ff1615612604576040517f08c379a00000000000000000000000000000000000000000000000000000000081526004016125fb90613107565b60405180910390fd5b80600b015f3373ffffffffffffffffffffffffffffffffffffffff1673ffffffffffffffffffffffffffffffffffffffff1681526020019081526020015f205f9054906101000a900460ff1615612690576040517f08c379a000000000000000000000000000000000000000000000000000000000815260040161268790613bf4565b60405180910390fd5b806001015434146126d6576040517f08c379a00000000000000000000000000000000000000000000000000000000081526004016126cd90613a6a565b60405180910390fd5b5f8160020154111561273057806002015481600401805490501061272f576040517f08c379a000000000000000000000000000000000000000000000000000000000815260040161272690613c5c565b60405180910390fd5b5b5f816006018054905011156127cb57806009015f3373ffffffffffffffffffffffffffffffffffffffff1673ffffffffffffffffffffffffffffffffffffffff1681526020019081526020015f205f9054906101000a900460ff166127ca576040517f08c379a00000000000000000000000000000000000000000000000000000000081526004016127c190613cc4565b60405180910390fd5b5b8060040133908060018154018082558091505060019003905f5260205f20015f9091909190916101000a81548173ffffffffffffffffffffffffffffffffffffffff021916908373ffffffffffffffffffffffffffffffffffffffff160217905550600181600b015f3373ffffffffffffffffffffffffffffffffffffffff1673ffffffffffffffffffffffffffffffffffffffff1681526020019081526020015f205f6101000a81548160ff0219169083151502179055506001816003015f8282546128989190613747565b92505081905550817f87969bc7faf902221a147b95ceba76e011c5efb0339a0a8ee7a2bb82d9cfbbd6336040516128cf9190612ccf565b60405180910390a2506128e0612927565b50565b60025f540361291e576040517f3ee5aeb500000000000000000000000000000000000000000000000000000000815260040160405180910390fd5b60025f81905550565b60015f81905550565b6040518061014001604052805f73ffffffffffffffffffffffffffffffffffffffff1681526020015f81526020015f81526020015f81526020015f151581526020015f15158152602001606081526020016060815260200160608152602001606081525090565b5f5ffd5b5f5ffd5b5f819050919050565b6129b18161299f565b81146129bb575f5ffd5b50565b5f813590506129cc816129a8565b92915050565b5f602082840312156129e7576129e6612997565b5b5f6129f4848285016129be565b91505092915050565b5f73ffffffffffffffffffffffffffffffffffffffff82169050919050565b5f612a26826129fd565b9050919050565b612a3681612a1c565b82525050565b5f8115159050919050565b612a5081612a3c565b82525050565b612a5f8161299f565b82525050565b5f60c082019050612a785f830189612a2d565b612a856020830188612a47565b612a926040830187612a47565b612a9f6060830186612a56565b612aac6080830185612a56565b612ab960a0830184612a56565b979650505050505050565b5f602082019050612ad75f830184612a56565b92915050565b612ae681612a1c565b8114612af0575f5ffd5b50565b5f81359050612b0181612add565b92915050565b5f5f60408385031215612b1d57612b1c612997565b5b5f612b2a858286016129be565b9250506020612b3b85828601612af3565b9150509250929050565b612b4e81612a3c565b8114612b58575f5ffd5b50565b5f81359050612b6981612b45565b92915050565b5f5f5f5f5f5f60c08789031215612b8957612b88612997565b5b5f612b9689828a01612af3565b9650506020612ba789828a01612b5b565b9550506040612bb889828a01612b5b565b9450506060612bc989828a01612b5b565b9350506080612bda89828a016129be565b92505060a0612beb89828a016129be565b9150509295509295509295565b5f81519050919050565b5f82825260208201905092915050565b5f819050602082019050919050565b612c2a8161299f565b82525050565b5f612c3b8383612c21565b60208301905092915050565b5f602082019050919050565b5f612c5d82612bf8565b612c678185612c02565b9350612c7283612c12565b805f5b83811015612ca2578151612c898882612c30565b9750612c9483612c47565b925050600181019050612c75565b5085935050505092915050565b5f6020820190508181035f830152612cc78184612c53565b905092915050565b5f602082019050612ce25f830184612a2d565b92915050565b5f5f60408385031215612cfe57612cfd612997565b5b5f612d0b858286016129be565b9250506020612d1c858286016129be565b9150509250929050565b612d2f81612a1c565b82525050565b612d3e81612a3c565b82525050565b5f81519050919050565b5f82825260208201905092915050565b5f819050602082019050919050565b5f612d788383612d26565b60208301905092915050565b5f602082019050919050565b5f612d9a82612d44565b612da48185612d4e565b9350612daf83612d5e565b805f5b83811015612ddf578151612dc68882612d6d565b9750612dd183612d84565b925050600181019050612db2565b5085935050505092915050565b5f61014083015f830151612e025f860182612d26565b506020830151612e156020860182612c21565b506040830151612e286040860182612c21565b506060830151612e3b6060860182612c21565b506080830151612e4e6080860182612d35565b5060a0830151612e6160a0860182612d35565b5060c083015184820360c0860152612e798282612d90565b91505060e083015184820360e0860152612e938282612d90565b915050610100830151848203610100860152612eaf8282612d90565b915050610120830151848203610120860152612ecb8282612d90565b9150508091505092915050565b5f6020820190508181035f830152612ef08184612dec565b905092915050565b5f5ffd5b5f5ffd5b5f5ffd5b5f5f83601f840112612f1957612f18612ef8565b5b8235905067ffffffffffffffff811115612f3657612f35612efc565b5b602083019150836020820283011115612f5257612f51612f00565b5b9250929050565b5f5f5f5f5f60808688031215612f7257612f71612997565b5b5f612f7f88828901612af3565b9550506020612f90888289016129be565b9450506040612fa1888289016129be565b935050606086013567ffffffffffffffff811115612fc257612fc161299b565b5b612fce88828901612f04565b92509250509295509295909350565b5f82825260208201905092915050565b7f4e6f7420676f7665726e6f7200000000000000000000000000000000000000005f82015250565b5f613021600c83612fdd565b915061302c82612fed565b602082019050919050565b5f6020820190508181035f83015261304e81613015565b9050919050565b7f47616d65206e6f742072656164790000000000000000000000000000000000005f82015250565b5f613089600e83612fdd565b915061309482613055565b602082019050919050565b5f6020820190508181035f8301526130b68161307d565b9050919050565b7f47616d6520656e646564000000000000000000000000000000000000000000005f82015250565b5f6130f1600a83612fdd565b91506130fc826130bd565b602082019050919050565b5f6020820190508181035f83015261311e816130e5565b9050919050565b7f4e6f74206120706c6179657200000000000000000000000000000000000000005f82015250565b5f613159600c83612fdd565b915061316482613125565b602082019050919050565b5f6020820190508181035f8301526131868161314d565b9050919050565b7f416c7265616479206c6f736572000000000000000000000000000000000000005f82015250565b5f6131c1600d83612fdd565b91506131cc8261318d565b602082019050919050565b5f6020820190508181035f8301526131ee816131b5565b9050919050565b7f506c6179657220666f72666569746564000000000000000000000000000000005f82015250565b5f613229601083612fdd565b9150613234826131f5565b602082019050919050565b5f6020820190508181035f8301526132568161321d565b9050919050565b7f4e6f74206f776e657200000000000000000000000000000000000000000000005f82015250565b5f613291600983612fdd565b915061329c8261325d565b602082019050919050565b5f6020820190508181035f8301526132be81613285565b9050919050565b7f4e6f2066756e64730000000000000000000000000000000000000000000000005f82015250565b5f6132f9600883612fdd565b9150613304826132c5565b602082019050919050565b5f6020820190508181035f830152613326816132ed565b9050919050565b5f81905092915050565b50565b5f6133455f8361332d565b915061335082613337565b5f82019050919050565b5f6133648261333a565b9150819050919050565b7f5769746864726177206661696c656400000000000000000000000000000000005f82015250565b5f6133a2600f83612fdd565b91506133ad8261336e565b602082019050919050565b5f6020820190508181035f8301526133cf81613396565b9050919050565b7f4e487b71000000000000000000000000000000000000000000000000000000005f52604160045260245ffd5b7f4e487b71000000000000000000000000000000000000000000000000000000005f52603260045260245ffd5b7f4e487b71000000000000000000000000000000000000000000000000000000005f52601160045260245ffd5b5f6134678261299f565b91507fffffffffffffffffffffffffffffffffffffffffffffffffffffffffffffffff820361349957613498613430565b5b600182019050919050565b7f416c7265616479207265616479000000000000000000000000000000000000005f82015250565b5f6134d8600d83612fdd565b91506134e3826134a4565b602082019050919050565b5f6020820190508181035f830152613505816134cc565b9050919050565b7f4e6f20706c6179657273000000000000000000000000000000000000000000005f82015250565b5f613540600a83612fdd565b915061354b8261350c565b602082019050919050565b5f6020820190508181035f83015261356d81613534565b9050919050565b7f47616d6520616c726561647920737461727465640000000000000000000000005f82015250565b5f6135a8601483612fdd565b91506135b382613574565b602082019050919050565b5f6020820190508181035f8301526135d58161359c565b9050919050565b7f416c726561647920666f726665697465640000000000000000000000000000005f82015250565b5f613610601183612fdd565b915061361b826135dc565b602082019050919050565b5f6020820190508181035f83015261363d81613604565b9050919050565b5f61364e8261299f565b91506136598361299f565b925082820390508181111561367157613670613430565b5b92915050565b7f526566756e64206661696c6564000000000000000000000000000000000000005f82015250565b5f6136ab600d83612fdd565b91506136b682613677565b602082019050919050565b5f6020820190508181035f8301526136d88161369f565b9050919050565b7f47616d6520616c726561647920656e64656400000000000000000000000000005f82015250565b5f613713601283612fdd565b915061371e826136df565b602082019050919050565b5f6020820190508181035f83015261374081613707565b9050919050565b5f6137518261299f565b915061375c8361299f565b925082820190508082111561377457613773613430565b5b92915050565b7f466565206f766572666c6f7700000000000000000000000000000000000000005f82015250565b5f6137ae600c83612fdd565b91506137b98261377a565b602082019050919050565b5f6020820190508181035f8301526137db816137a2565b9050919050565b5f6137ec8261299f565b91506137f78361299f565b92508282026138058161299f565b9150828204841483151761381c5761381b613430565b5b5092915050565b7f4e487b71000000000000000000000000000000000000000000000000000000005f52601260045260245ffd5b5f61385a8261299f565b91506138658361299f565b92508261387557613874613823565b5b828204905092915050565b7f476f7665726e6f72207472616e73666572206661696c656400000000000000005f82015250565b5f6138b4601883612fdd565b91506138bf82613880565b602082019050919050565b5f6020820190508181035f8301526138e1816138a8565b9050919050565b7f52656d61696e646572207472616e73666572206661696c6564000000000000005f82015250565b5f61391c601983612fdd565b9150613927826138e8565b602082019050919050565b5f6020820190508181035f83015261394981613910565b9050919050565b7f5061796f7574206661696c6564000000000000000000000000000000000000005f82015250565b5f613984600d83612fdd565b915061398f82613950565b602082019050919050565b5f6020820190508181035f8301526139b181613978565b9050919050565b7f5374616b65206d75737420626520706f736974697665000000000000000000005f82015250565b5f6139ec601683612fdd565b91506139f7826139b8565b602082019050919050565b5f6020820190508181035f830152613a19816139e0565b9050919050565b7f496e636f7272656374207374616b6500000000000000000000000000000000005f82015250565b5f613a54600f83612fdd565b9150613a5f82613a20565b602082019050919050565b5f6020820190508181035f830152613a8181613a48565b9050919050565b7f496e76616c696420676f7665726e6f72000000000000000000000000000000005f82015250565b5f613abc601083612fdd565b9150613ac782613a88565b602082019050919050565b5f6020820190508181035f830152613ae981613ab0565b9050919050565b5f60208284031215613b0557613b04612997565b5b5f613b1284828501612af3565b91505092915050565b5f604082019050613b2e5f830185612a2d565b613b3b6020830184612a56565b9392505050565b7f47616d6520646f6573206e6f74206578697374000000000000000000000000005f82015250565b5f613b76601383612fdd565b9150613b8182613b42565b602082019050919050565b5f6020820190508181035f830152613ba381613b6a565b9050919050565b7f416c7265616479206a6f696e65640000000000000000000000000000000000005f82015250565b5f613bde600e83612fdd565b9150613be982613baa565b602082019050919050565b5f6020820190508181035f830152613c0b81613bd2565b9050919050565b7f47616d652066756c6c00000000000000000000000000000000000000000000005f82015250565b5f613c46600983612fdd565b9150613c5182613c12565b602082019050919050565b5f6020820190508181035f830152613c7381613c3a565b9050919050565b7f4e6f742077686974656c697374656400000000000000000000000000000000005f82015250565b5f613cae600f83612fdd565b9150613cb982613c7a565b602082019050919050565b5f6020820190508181035f830152613cdb81613ca2565b905091905056fea2646970667358221220b3d4b8809736b51e2a6fd5f9caeeef47867393b7a3fe05312fa94820d04516be64736f6c63430008210033","linkReferences":{}},"methodIdentifiers":{"addLoser(uint256,address)":"3138dbf9","createGame(address,uint256,uint256,address[])":"e240ae5f","endGame(uint256,uint256)":"9f98985d","forfeitGame(uint256)":"98be22f7","games(uint256)":"117a5b90","getGame(uint256)":"a2f77bcc","getGovernorGames(address,bool,bool,bool,uint256,uint256)":"4bd40e79","getNotStartedGames(uint256,uint256)":"e0e2721e","getOngoingGames(uint256,uint256)":"a2c25369","houseFeePercentage()":"1780a892","joinGame(uint256)":"efaa55a0","nextGameId()":"b135bbb0","owner()":"8da5cb5b","setGameReady(uint256)":"6b0be1f5","withdraw()":"3ccfd60b"},"id":0}